:100000000C9414020C9431020C9431020C943102C1
:100010000C9431020C9431020C9431020C94310294
:100020000C9431020C9431020C94CA030C943102EA
:100030000C9431020C9431020C9431020C94310274
:100040000C9431020C9431020C9431020C94310264
:100050000C9431024D53203230313620004B415246
:100060004F4C4B41204B415049205448414E4B533B
:100070002000000101010001000000010101010157
:100080000101000000010100000001010101010067
:100090000100000001010101010001000000010157
:1000A0000101010000010101010100000000010047
:1000B0000000000100000000000101010101010138
:1000C000010001000000010100000001010000002A
:1000D0000101010101000101010101010000000015
:1000E0000101010000010000000001010101010106
:1000F00001010101010000000001010100000100F7
:1001000000000001000000000001010101010000E9
:1001100000000100010101010000000100010101D6
:1001200000010000000101000000010101010101C6
:1001300001000000010100000001000001000000BA
:1001400000010000000001000000000100000000AC
:10015000010000000000000100000000010000009C
:100160000001010000000100010101000100000088
:100170000101000001000101010000010000010077
:10018000010000000101000000000100000000016A
:100190000000000001000000000101010101010058
:1001A0000000010101000101010001000101000046
:1001B0000001010000000101000000010101000038
:1001C0000101000100010100000101010000000126
:1001D0000001010100010000000101000000010117
:1001E0000000000100010101000101010100010006
:1001F00000000101010101000100000000010000F8
:1002000000000001010100010000000101000100E7
:1002100001010000010000010100010101010100D4
:1002200001000000010101010100010000010001C5
:1002300000000001000101010101000000000001B7
:1002400001010000000000010101010100010101A4
:100250000101000001000000000100000000010099
:100260000000000100000100000001010000000189
:100270000100000001010000000100010101000176
:100280000000000101000000010100000001000168
:100290000001000000010000010000000101000059
:1002A0000001010001000101010001010100000045
:1002B0000101000000010001000100000001000038
:1002C0000001000100010000000101000000010028
:1002D000010001000000010000000001000000001A
:1002E0000100000101010101000000010000000106
:1002F00000000001000000010101010100010101F5
:1003000000010000010101000100010101000001E4
:1003100000010101000000010000000101000000D7
:1003200000010000000001000000010101000101C6
:1003300001010000000000010001010100010000B6
:1003400000000101010101010101010000000000A4
:100350000100000101000000000001010101010095
:100360000100000100010000010001010101010084
:100370000000010000000001000101010101010075
:100380000000000101010100000000000101010165
:100390000100000101010001000000000101010154
:1003A0000001000000010001010100010101010143
:1003B000000000000100000001000000010000003A
:1003C0000100000000010101000100000001000126
:1003D0000101000100000001000101010000010114
:1003E0000100010000000100010101000000000007
:1003F00001000101010000000000000000000000F9
:1004000000000000000000000000000000000000EC
:1004100000010000000001000000000100000000D9
:10042000000000000001000011241FBECFE5D8E04D
:10043000DEBFCDBF10E0A0E6B0E0EEE0FFE202C01C
:1004400005900D92AA3CB107D9F721E0AAECB0E0E3
:1004500001C01D92A036B207E1F70E9472030C940E
:1004600085170C940000813011F4D8980895D89A1B
:100470000895813011F4D9980895D99A089581305A
:1004800011F4DA980895DA9A0895813011F4DB981E
:100490000895DB9A0895813011F4DC980895DC9A70
:1004A0000895813011F4DD980895DD9A0895813022
:1004B00011F4DE980895DE9A0895813011F4DF98E2
:1004C0000895DF9A0895813011F4C0980895C09A74
:1004D0000895813011F4C1980895C19A089581302A
:1004E00011F4C2980895C29A0895813011F4C39806
:1004F0000895C39A0895813011F4C4980895C49A58
:100500000895813011F4C5980895C59A08958130F1
:1005100011F4C6980895C69A0895813011F4C798C9
:100520000895C79A0895813011F4A8980895A89A5B
:100530000895813011F4A9980895A99A08958130F9
:1005400011F4AA980895AA9A0895813011F4AB98ED
:100550000895AB9A0895813011F4AC980895AC9A3F
:100560000895813011F4AD980895AD9A08958130C1
:1005700011F4AE980895AE9A0895813011F4AF98B1
:100580000895AF9A0895813011F490980895909A43
:100590000895FF920F931F93CF93DF93F82E04E6F5
:1005A00010E0C0E0D0E0F801EC0FFD1F0190F081F9
:1005B000E02D8F2D09952296CA30D105A1F7065F4F
:1005C0001F4F80E00639180761F7DF91CF911F9127
:1005D0000F91FF900895823079F030F4882351F024
:1005E000813071F4929A0895833041F0843041F45F
:1005F000959A0895919A0895939A0895949A0895D2
:10060000919892989398949895980895823071F063
:1006100030F4882349F0813069F49298089583304A
:1006200039F0843059F006C0919808959398089550
:10063000949808959198929893989498959808957D
:100640008230C1F048F4882381F08130F1F480E0F9
:100650000E94060381E012C0833091F08430A9F437
:1006600083E00E94060384E009C084E00E94060340
:1006700080E004C081E00E94060382E00C94EB025B
:1006800082E00E94060383E0F9CF80E00E94060327
:1006900081E00E94060382E00E94060383E00E943C
:1006A000060384E00C9406038FEF8ABB8BBB87BBE9
:1006B00088BB84BB85BB889A909A81B38E6381BBCB
:1006C00082B3817C82BB8F98979A089583B78860A4
:1006D00083BF83B7836083BF82E38CBF89B78260A7
:1006E00089BF0895CF93DF9300D000D0CDB7DEB798
:1006F0001C821B8280E090E00E940D17D82E8BE0B8
:100700008D1508F4D12C1A8219820E9454030E947C
:1007100066037894809196008823E1F31092960006
:100720008091CA008823D9F0879B19C01092CA0013
:1007300060E083EE90E00E949C09D3949AE09D15BE
:1007400008F4D12C6D2D80E090E00E9415171092D6
:10075000D0001092CF001B821C821A8212BEED2D97
:10076000F0E0EE0FFF1FEC54FF4F0190F081E02D01
:10077000CE0101967C018E010E5F1F4F9E012D5F01
:100780003F4FAE014C5F5F4F6FEC70E083EE90E047
:100790000995C0CF1F920F920FB60F9211242F937D
:1007A0003F934F935F936F937F938F939F93AF93F9
:1007B000BF93CF93DF93EF93FF938091D2008F5F2E
:1007C0008093D2008091D2008A3050F01092D200F3
:1007D0008091D10091E0980F9093D1000E94060380
:1007E0008091D1008530A8F0879903C081E0809383
:1007F000CA001092D1008091CF009091D000019654
:100800009093D0008093CF008091960081E08093F8
:1008100096001092CC00D9E1C5E08091CC008530E3
:1008200008F065C01092CB008091CB00853008F0B5
:1008300058C09091CC00E091D1008091CB00CE9F28
:10084000F0011124D99FE00DF11D1124ED51FF4F4E
:10085000E80FF11D80818823B1F08091D2008111D1
:1008600012C0E091CC008091CB00CE9FF00111240A
:10087000E80FF11DEE0FFF1FEC59FF4F0190F081C3
:10088000E02D81E027C09091CC00E091D1008091D3
:10089000CB00CE9FF0011124D99FE00DF11D112452
:1008A000ED51FF4FE80FF11D90818091D200981318
:1008B00012C0E091CC008091CB00CE9FF0011124BA
:1008C000E80FF11DEE0FFF1FEC59FF4F0190F08173
:1008D000E02D80E009958091CB008F5F8093CB0065
:1008E000A3CF8091CC008F5F8093CC0096CF809176
:1008F000D200811104C08091D1000E94EB02FF91CF
:10090000EF91DF91CF91BF91AF919F918F917F91A7
:100910006F915F914F913F912F910F900FBE0F906C
:100920001F9018950F931F93CF93DF93FC01D9016C
:10093000EB0188819981EA0128810C9730F022230C
:10094000A9F08BEF820F823088F0EB0188819981CA
:10095000CC9720F0213051F0243041F0EB01888118
:1009600099810C9748F02250223030F4EB01198223
:1009700018828C918F5F8C939C91EA0188819530CD
:1009800048F08230A0F0993238F02EEF280F223054
:1009900018F40DC0943080F0843049F0963018F08F
:1009A000853019F404C0953038F0863029F41C9253
:1009B000EA0188818F5F8883EA018881873028F087
:1009C0001882E80188818F5F8883EB018881998193
:1009D000892B09F079C2EA0168816111D8C04C9174
:1009E00050E084E090E0841B950B79E1789FE00172
:1009F000799FD00D1124CE0FDF1F65E0689F900115
:100A0000699F300D1124240F351FC20FD31F84E1BD
:100A100088832C912223C9F030E085E090E0821B8E
:100A2000930B789FE001799FD00D1124CE0FDF1F2B
:100A3000A90141505109689F9001699F300D11240F
:100A4000240F351FC20FD31F18828C91833011F4ED
:100A500084E186AF2C9184E090E0821B910959E1FA
:100A6000589FE001599FD00D1124CE0FDF1F46E0A3
:100A7000489F9001499F300D1124C20FD31F84E17C
:100A800088832C91222399F085E090E0821B9109C4
:100A9000589FE001599FD00D1124CE0FDF1F489FB2
:100AA0009001499F300D1124C20FD31F18828C91E1
:100AB000833011F484E186AF4C91EF0189E1489FC6
:100AC000C00DD11D112450E024E030E0241B350B73
:100AD00065E0629FC001639F900D1124840F951FF4
:100AE000C80FD91F84E188838C918823C9F0EF0156
:100AF00099E1899FC00DD11D1124699790E025E0EF
:100B000030E0281B390BAC0141505109629FC001F4
:100B1000639F900D1124840F951FC80FD91F188251
:100B20008C91833011F484E186AF2C91EF0189E13F
:100B3000289FC00DD11D112484E090E0821B9109F3
:100B400046E0489F9001499F300D1124C20FD31FEA
:100B500084E188832C91222399F0EF0199E1299F68
:100B6000C00DD11D1124699785E090E0821B910989
:100B7000489F9001499F300D1124C20FD31F188246
:100B80008C91833009F0A0C184E186AF9DC16130B2
:100B900049F58C918230E1F050F4882381F0813066
:100BA00009F092C184E181AFED5BFF4F15C0833046
:100BB000A9F0843009F088C184E184AF2AC0108292
:100BC000DF01AC59BF4F1C92148214961C927CC159
:100BD00084E184ABE85BFF4F808376C184E185AF1D
:100BE00087AF72C1623009F040C08C9183709F0161
:100BF0002C593F4FEF01C55BDF4F81110DC01686A9
:100C000016A21B86D9011A961C9284E184AF85AF87
:100C100087AFE05CFF4FE0CF813079F414AE15AEC2
:100C200017AECF01805C9F4FDC011C9284E182876C
:100C300084A38D87E9018E8747C1823041F41286F3
:100C400014A21D86D9011E961C921E9744C01486BC
:100C500015A21C86D9011C961C921C9784E18687DC
:100C600086A38B871A968C932FC1633009F048C0F6
:100C70008C9183709F012C593F4FEF01C55BDF4F73
:100C800081110DC0168A12A61F82E9011A8284E121
:100C900084AB81AFDF01AD5BBF4F8C939BCF8130C5
:100CA00089F414AA11AECF018D5B9F4FDC011C9219
:100CB0000596DC011C9284E1828380A3898BE90183
:100CC0008E8B02C1823071F4128210A2198AD9016E
:100CD00056961C92569784E1848785A38C871C9630
:100CE0008C93F2C0148615A21C86D9011C961C9206
:100CF0001C9784E1868B82A78F8312968C93E4C025
:100D00006430C9F48C91813071F048F0823071F018
:100D1000833009F0D9C011AEED5BFF4F0AC014AEAD
:100D2000E05CFF4F06C015AE17AECEC014AAE85B5C
:100D3000FF4F1082C9C0653009F0C6C04C914530E4
:100D400008F0B8C0EF0189E1489FC00DD11D112402
:100D500050E024E030E0241B350B649FC001659F08
:100D6000900D1124820F931FC80FD91F84E188832F
:100D70008C918823C9F0EF0199E1899FC00DD11DA5
:100D80001124699790E0AC014150510925E030E011
:100D9000281B390B649FC001659F900D1124820FA1
:100DA000931FC80FD91F18828C91EF019FE1899F73
:100DB000C00DD11D112484E188838C91882391F08A
:100DC000EF0199E1899FC00DD11D1124699790E031
:100DD000019746E0489F9001499F300D1124C20FB2
:100DE000D31F18824C9150E084E090E0841B950B57
:100DF00079E1789FE001799FD00D1124CE0FDF1F9C
:100E000065E0649F9001659F300D1124280F391F04
:100E1000C20FD31F84E188832C912223C9F030E0D4
:100E200085E090E0821B930B789FE001799FD00DC5
:100E30001124CE0FDF1FA90141505109649F900179
:100E4000659F300D1124280F391FC20FD31F188240
:100E50002C9130E084E090E0821B930B59E1589F85
:100E6000E001599FD00D1124CE0FDF1F46E0429FB5
:100E7000C001439F900D1124C80FD91F84E18883BE
:100E80002C91222309F130E085E090E0821B930B46
:100E9000589FD001599FB00D1124AE0FBF1F215094
:100EA0003109429FC001439F900D1124A80FB91F23
:100EB0001C920AC0148ADF01AC59BF4F54961C9291
:100EC0005497108E58961C92DF91CF911F910F91DD
:100ED0000895CF93DF9320E030E055E0659FB001A7
:100EE0001124DC01AC59BF4FFB01E20FF31FEC01F1
:100EF000CE0FDF1F4883EA0FFB1F40832F5F3F4F5A
:100F00002530310589F7FC01E60FF71F418F458F2A
:100F100042AB46ABE55BFF4F4083FC01E55BFF4F17
:100F2000E60FF71F4483DF91CF910895CF92DF92B0
:100F3000EF92FF920F931F93CF93DF93EC016A011F
:100F4000F701DB018D919C9111970C9738F0119668
:100F50001C921E92DA018C918F5F8C93D6018C913A
:100F6000883020F01C9280818F5F80838081813166
:100F700028F01082F80180818F5F8083DB018D91E2
:100F80009C91892B09F0F1C0F6018081853078F4BD
:100F9000882321F06FEF680F40E002C040E061E07D
:100FA000CE010E9469074AE0D6016C910BC069E04E
:100FB000681B40E0CE010E94690768E0F60180816D
:100FC000681B4AE0CE010E946907D6018C919FEF11
:100FD000980FFE01E55BFF4F9530C8F5813019F1A0
:100FE0008250B5E08B9FC00111249E01280F391F4C
:100FF000D9015A961C928E0F9F1FDC0111961C92EC
:10100000D9015B961C92DC0112961C92D9015C9668
:101010001C92DC0113961C92D901D3961C92D39793
:10102000D5961C9208C01F8E168218A2178219A28C
:10103000108618AE1AAED6018C918150B5E08B9F08
:10104000C0011124DE01A80FB91F2AE042C081119E
:1010500012C01CA213861DA214861EA215861DAEE8
:101060001FAE8AE08F8F868388A3878389A38087BA
:1010700088AF8AAF41C02AE0922F981B35E0399F94
:10108000C0011124AE01480F591FDA015A961C9273
:101090008E0F9F1FDC0111961C92DA015B961C9249
:1010A000DC0112961C92DA015C961C92DC0113960C
:1010B0001C92DA01D3961C92D397D5961C9289E0A4
:1010C000D6019C91891B389FC0011124DE01A80F15
:1010D000B91F5A962C935A97E80FF91F21835B96F4
:1010E0002C935B9722835C962C935C972383D396F7
:1010F0002C93D397D5962C93F60180819EEF980F71
:101100009530A8F4823049F08350FE0125E0829F9B
:10111000E00DF11D112414AA01C01EAED6018C9160
:101120008250B5E08B9FC00DD11D112413C08230B9
:10113000A0F493E0981B25E0FE01299FE00DF11D2E
:10114000112414AA82E0F6019081891B289FC00D0A
:10115000D11D11248AE08CAB08C0FE01E85BFF4F73
:101160001082CD5BDF4F8AE08883DF91CF911F91A2
:101170000F91FF90EF90DF90CF900895CF93DF9382
:101180008823B9F0C0E0DAE0DC9FF0011124EC59CB
:10119000FF4F0190F081E02D81E009952FEF81EE66
:1011A00094E0215080409040E1F700C00000CF5F04
:1011B000EBCF2FEF81EE94E0215080409040E1F79B
:1011C00000C00000E0916400F091650080E00995A6
:1011D0002FEF81EE94E0215080409040E1F700C075
:1011E0000000DF91CF9108951F93CF93DF9381E0AB
:1011F0000E94C902C0E08C2F0E9420032FEF89E6D5
:1012000098E1215080409040E1F700C00000D1E01B
:10121000DC0FD53029F08C2F0E940603CD2FEBCFA9
:1012200080E00E94C902D1E0C0E011E08C2F0E9452
:1012300020032FEF81EE94E0215080409040E1F7B1
:1012400000C000008D2F0E94BE08D1272FEF81EE35
:1012500094E0215080409040E1F700C00000CF5F53
:10126000C53021F780E0DF91CF911F910C94C90226
:101270008F929F92AF92BF92CF92DF92EF92FF92A6
:101280000F931F93CF93DF9380E00E942003C0E071
:10129000D0E080E00E94C90284E6882E80E0982E8B
:1012A00000E010E0A12CB12CE12CF12C6801CC0E57
:1012B000DD1EC6018E589F4F6C01F601EE0DFF1D1D
:1012C000E491D401AA0DBB1DEE2321F0ED91FC9118
:1012D00081E003C0ED91FC9180E009952FEFE21AC7
:1012E000F20A82E0A80EB11C95E0E916F10429F794
:1012F0002AE0820E911C0B5F1F4F0931110591F6F8
:101300009FEF27EA81E6915020408040E1F700C03E
:1013100000006996C63B93E0D90709F0BACFDF9188
:10132000CF911F910F91FF90EF90DF90CF90BF90E2
:10133000AF909F908F90089545E055E020E030E019
:10134000529FF001539FF00D1124E80FF91F6083A5
:1013500061836283638364832F5F3F4F2530310550
:1013600079F7415049964111E9CF0895CF92DF9224
:10137000EF92FF920F931F93CF93DF936C01E801DD
:101380008881882391F018828091D3008F5F8A3002
:1013900018F48093D30002C01092D300FB01118295
:1013A0001082F9011082FA011082E091D300F0E07E
:1013B000EE0FFF1FEC54FF4F0190F081E02D8E01E6
:1013C000C60109958881882361F060E0C601DF913C
:1013D000CF911F910F91FF90EF90DF90CF900C94E1
:1013E0009C09DF91CF911F910F91FF90EF90DF90BB
:1013F000CF900895CF92DF92EF92FF920F931F93B9
:10140000CF93DF937C0139E1439FE00CF11C112461
:10141000C0E0D0E035E050E0349F6001359FD00C53
:101420001124E0E0F0E03C9F80013D9F100D11246D
:10143000611108C03E9FD0013F9FB00D1124A40F41
:10144000B51F05C0613031F4D601AE0FBF1FA80F24
:10145000B91F07C0623031F4D801AE0FBF1FAE0D07
:10146000BF1D2C933196E530F10511F72196499671
:10147000C530D105B1F6DF91CF911F910F91FF904B
:10148000EF90DF90CF900895EF92FF920F931F930C
:10149000CF93DF93EC01DA017901FB018081918127
:1014A0002C91499710F02330E8F0FB018081918165
:1014B0008035910510F02330A9F0FB0180819181E6
:1014C0000F9710F0243071F0FB0180819181039718
:1014D00010F0253039F0FB0180819181029748F0AE
:1014E000263039F4FB0111821082F70180818F5F71
:1014F0008083F70190819530A8F08C91843068F05A
:10150000943138F0843049F0933318F0853019F471
:1015100004C09B3038F0863029F4F70110828C919A
:101520008F5F8C938C91873028F01C92F80180811A
:101530008F5F8083FB0180819181892B09F08EC1AF
:101540008C918230A9F128F4882361F08130D1F0A8
:1015500085C1843009F4DAC008F448C0853009F444
:1015600060C17CC124E1D7014C9162E0CE010E94B0
:10157000FA09F7014081442309F470C1415020E089
:1015800062E02BC020E044E062E0CE010E94FA0954
:101590002AE0D7014C9161E0CE010E94FA09F701DF
:1015A0004081442309F45AC1415020E061E015C054
:1015B00020E044E061E0CE010E94FA092AE0D70170
:1015C0004C9160E0CE010E94FA09F701408144236A
:1015D00009F444C1415020E060E0CE01DF91CF9199
:1015E0001F910F91FF90EF900C94FA09D7018C9105
:1015F000811106C020E044E060E0CE010E94FA09BB
:10160000F7012081822F8B7FBE016C597F4F8111A2
:1016100046C09E0180E090E044E050E005E01AE022
:10162000D701EC91DA01AE1BB1090A9FF0010B9FC3
:10163000F00D1124E80FF91FEC0FFD1F1083D701E7
:10164000EC91DA01AE1BB1090A9FF0010B9FF00D7E
:101650001124E80FF91FE60FF71F1083D701EC9153
:10166000DA01AE1BB1090A9FF0010B9FF00D1124A6
:10167000E20FF31F1083D701EC91DA01AE1BB10921
:101680000A9FF0010B9FF00D1124E20FF31F14834A
:101690000196275E3F4F8530910511F6DFC084E04B
:1016A00090E0FC01E21BF1099F0155E0529FF0011F
:1016B000539FF00D1124EC0FFD1F4AE04083D7012A
:1016C0002C91FC01E21BF1099F01529FF001539FF5
:1016D000F00D1124EC0FFD1F44832C91DC01A21BA3
:1016E000B1095A9FF0015B9FF00D1124E60FF71F1F
:1016F0004083F7012081821B9109589FF001599F77
:10170000F00D1124E60FF71F4483A8C0D7018C9178
:101710008530A8F4811102C081E08C93F7018081AB
:10172000FE01E80FF11D1082D7012C9184E090E0BA
:10173000821B9109CC59DF4FC80FD91F1AC08930BD
:10174000D0F490E0049745E0489FF001499FF00DE8
:101750001124EC0FFD1F1482F701808190E00497A3
:10176000CC59DF4F489F9001499F300D1124C20F83
:10177000D31F188273C08D30C8F4FE0149E1849FE5
:10178000E00DF11D1124E85CF109108ED7012C91B8
:101790008CE090E0821B910929E1289FF001299FAC
:1017A000F00D1124EC0FFD1F148A58C08131F0F4A4
:1017B00020E130E0F901E81BF109CF0145E0489F45
:1017C000F001499FF00D1124EC0FFD1F1082D7018D
:1017D0008C91281B3109CC59DF4F429FC001439F98
:1017E000900D1124C80FD91F1C8238C08431B0F568
:1017F000FE01B9E18B9FE00DF11D1124E059F1408C
:101800001082F701208184E190E0821B910929E197
:10181000289FF001299FF00D1124EC0FFD1F148269
:101820001DC0D7012C913AE0822F632F0E945415DE
:1018300080FF06C0622FBAE08B9F6019112406C09A
:10184000632F621BEAE08E9F600D11246D8B6E8BFF
:101850006F8BCC59DF4F6D8B6E8B6F8BDF91CF9180
:101860001F910F91FF90EF900895CF92DF92EF922A
:10187000FF920F931F93CF93DF93EC01FB017A014B
:10188000690180819181069730F011821082D9011F
:101890008C918F5F8C93D6018C91843028F01C92B0
:1018A000D7018C918F5F8C93D7018C91823328F074
:1018B0001C92D8018C918F5F8C9380819181892BB0
:1018C00009F00FC1F7018081811110C0D6018C9100
:1018D00081110CC02AE040E061E0CE010E94FA09CB
:1018E00020E044E061E0CE010E94FA09F701808126
:1018F000F601B081893108F06EC09BEF980F9530EA
:1019000020F091EF980F9530A8F5A5E06A2F0E947E
:101910005415FE0129E1829FE00DF11D112444E0E0
:1019200050E09A01291B3109AB9F200D311D112474
:10193000E20FF31F1082F70180810E945415F9E134
:101940008F9FC00DD11D1124F6017081272F30E02B
:101950002F5F3F4F491B51097195770F795FA29F08
:10196000C001A39F900D1124840F951FC80FD91F8C
:101970007883B7C055E0652F0E945415292FFE01CA
:1019800099E1899FE00DF11D11245B9FC001112495
:10199000820F911DE80FF91F1082D7018C910E94D0
:1019A0005415692FB9E18B9FC00DD11D1124F6018B
:1019B0004081242F30E02F5F3F4F4195440F495F16
:1019C000529FC001539F900D1124860F911DC80F87
:1019D000D91F488386C092EE980F953028F098ED75
:1019E000980F953008F042C0A5E06A2F0E94541568
:1019F000FE0129E1829FE00DF11D1124ED57F1094F
:101A000024E030E0B9016B1B7109A901491B5109A0
:101A1000A69FC001A79F900D1124840F951FE80F6A
:101A2000F91F1082F70180816A2F0E945415692FD7
:101A3000F9E18F9FC00DD11D1124CD57D109F601B9
:101A4000808190E043E050E0481B590B261B310990
:101A50000296682F660FA49FC001A59F900D1124C8
:101A6000820F931FC80FD91F68833BC045E0642FC6
:101A70000E945415592FFE0129E1829FE00DF11DAE
:101A80001124ED57F10924E030E02B1B3109429F6E
:101A9000C001439F900D1124850F911DE80FF91F80
:101AA0001082D7018C910E945415692FB9E18B9F48
:101AB000C00DD11D1124CD57D109F601808190E0D0
:101AC00023E030E0281B390B0296582F550F429F18
:101AD000C001439F900D1124860F911DC80FD91F7F
:101AE0005883DF91CF911F910F91FF90EF90DF907E
:101AF000CF900895AF92BF92CF92DF92EF92FF9274
:101B00000F931F93CF93DF93F72E29E1629FB001CC
:101B100011249C01260F371FA52FB0E050E0E5E00F
:101B2000EE2EEA9EE001EB9ED00D11248E01040FF3
:101B3000151FF901E00FF11FF0825A01EFEFAE1A05
:101B4000BE0ACA0DDB1D6901CC0EDD1EF601F08256
:101B5000675E7F4F680F791F060F171FF801F0822D
:101B6000C60FD71FF8821196EA9EC001EB9E900D1A
:101B70001124480F591FD901A40FB51FFC928A0DDB
:101B80009B1DF901E80FF91FF082FB01E40FF51F1F
:101B9000F082FB01E80FF91FF082DF91CF911F91D6
:101BA0000F91FF90EF90DF90CF90BF90AF9008958E
:101BB000413031F0F8F0423029F5422F0C9469079A
:101BC00035E0639FB0011124FC01E60FF71F228F5F
:101BD000DC01A55BBF4FA60FB71F11962C93119781
:101BE000238F12962C931297248F13962C9323AB4A
:101BF00025AB0895DC0135E0639FA00DB11D1124D4
:101C0000D4962C9308950F93611109C035E0439F3A
:101C1000F0011124E20FF11DE80FF91F00830F916D
:101C200008959FEB980F9A31A0F090ED980F9A309D
:101C300010F4865108959FE9980F9A3150F0803240
:101C400021F0813221F485E2089584E2089584E64A
:101C50000895892F08956F927F929F92AF92BF92BD
:101C6000CF92DF92EF92FF920F931F93CF93DF9368
:101C70007C01FB01EA01808191818436910528F085
:101C80001182108288818F5F88838881823328F057
:101C90001882D8018C918F5F8C9380819181892BE0
:101CA00009F056C0E881F0E0E35AFF4F84910E94AA
:101CB000110E843661F41882F80180818F5F808371
:101CC000E881F0E0E35AFF4F84910E94110EF9E1A0
:101CD0008F9F60011124C0E0D0E040E050E0570148
:101CE00084E6A80EB11CF5E09F2E9BE4E90EF11CE2
:101CF000DE01AC0DBD1D20E030E0AE58BF4F949E1C
:101D00008001959E100D1124FD01E20FF31FE49157
:101D1000EE0F6E2F660F660F6E0F3801620E731E88
:101D2000C501860D971DFC0160838081692D0E948D
:101D30005415F301EE0DFF1D80832F5F3F4F2530BB
:101D4000310511F74F5F5F4F25964530510581F6FC
:101D5000DF91CF911F910F91FF90EF90DF90CF9087
:101D6000BF90AF909F907F906F9008959F92AF9299
:101D7000BF92CF92DF92EF92FF920F931F93CF9378
:101D8000DF93EC015B016A017901DB018D919C918C
:101D9000F90120818436910510F0213039F0D50108
:101DA0008D919C91449748F0211107C0F501118253
:101DB0001082D7018C918F5F8C93F70180818230E4
:101DC00028F01082D6018C918F5F8C93F601808170
:101DD000823328F01082D8018C918F5F8C93D601CA
:101DE000EC91F0E0EC5AFF4F84910E94110E982E76
:101DF000B4E68B1308C0F6011082D7011C92F801DB
:101E000090819F5F9083D5012D913C91232B09F008
:101E10006FC0F7018081811123C02AE044E062E0B5
:101E2000CE010E94FA0922E043E062E0CE010E9466
:101E3000FA0922E042E062E0CE010E94FA0921E0C4
:101E400041E062E0CE01DF91CF911F910F91FF90B1
:101E5000EF90DF90CF90BF90AF909F900C94FA09D5
:101E600020E042E062E0CE010E94FA0920E041E079
:101E700062E0CE010E94FA09F9E19F9EC00111249F
:101E8000A0E0B0E040E050E06E012BE4C20ED11CB7
:101E900015E0A12ECC59DF4FBD01680F791F20E05E
:101EA00030E06E587F4FA49E7001A59EF00C112467
:101EB000FB01E20FF31FB490BB0C8701020F131F4D
:101EC000F601E00FF11FB082E081BE2EBB0CBB0C0F
:101ED000BE0EFE01E00FF11FB0822F5F3F4F253095
:101EE000310531F74F5F5F4F159645305105A1F62B
:101EF000DF91CF911F910F91FF90EF90DF90CF90E6
:101F0000BF90AF909F900895932FE62FF0E0E21BD3
:101F1000F109272F30E0291B310990E0841B91093A
:101F2000EE9FB001EF9F700D700D1124229FA00154
:101F3000239F500D500D1124640F751F889F900131
:101F4000899F300D300D1124620F731F882777FD94
:101F50008095982F0E94B6150E943E160E941A1670
:101F60000E948815862F0895CF93C82F8091B200C4
:101F70009091B3009C01235F3F4F65E070E00E94A9
:101F80006015260F371F3093B3002093B200C901AC
:101F90000E9402170E94FD166C2F70E00E947415BB
:101FA000CF910895AF92BF92DF92EF92FF920F937D
:101FB0001F93CF93DF931F92CDB7DEB75C0109E18A
:101FC000D02E85E069830E94B40F750199E1899F45
:101FD000E00CF11C112485E00E94B40F082F10E0E2
:101FE00085E00E94B40F6981E62FE81B8E2FF70170
:101FF000E00FF11F8083DA9421F70F90DF91CF91EA
:102000001F910F91FF90EF90DF90BF90AF900895D8
:10201000EF92FF920F931F93CF93DF93EC01FA019E
:10202000DB018D919C9111970A9730F011961C92CB
:102030001E9280818F5F808380818E3128F0108294
:10204000D7018C918F5F8C93D7018C91853028F0CC
:102050001C92D8018C918F5F8C93DB018D919C91A8
:10206000892B09F0B0C0808181114DC01092E2002F
:102070001092B1004091DF005091E0006091E100CA
:102080007091E200CE010E947A0D4091AE00509115
:10209000AF006091B0007091B100CE010E947A0D46
:1020A00084E00E94B40F8093DF0084E00E94B40FAC
:1020B0008093E00084E00E94B40F8093E10084E00C
:1020C0000E94B40F8093AE0084E00E94B40F80930E
:1020D000AF0084E00E94B40F8093B0002091AE0066
:1020E0003091AF004091B0005091B1006091DF009D
:1020F0007091E0008091E1009091E2000E94840FD5
:10210000833070F260C0863028F48093E2008093C0
:10211000B1001EC0843140F58AE00E94B40F909156
:10212000E200853020F09A30B8F79F5F03C094300A
:1021300098F391509093E2008AE00E94B40F90913E
:10214000B1008530D8F19A30B8F79F5F9093B10015
:102150004091DF005091E0006091E1007091E20059
:10216000CE010E947A0D19C08091E200882371F09F
:1021700081508093E2004091DF005091E000609137
:10218000E1007091E200CE010E947A0D8091B100D1
:102190008823C9F081508093B1004091AE005091E6
:1021A000AF006091B0007091B100CE01DF91CF918E
:1021B0001F910F91FF90EF900C947A0D943008F4DA
:1021C000BBCF9150C3CFDF91CF911F910F91FF9063
:1021D000EF900895AF92BF92CF92DF92EF92FF926D
:1021E0000F931F93CF93DF936C015B01EA01F7011B
:1021F000DB018D919C911197039730F011961C9201
:102200001E9288818F5F88838881863048F018828B
:1022100080818F5F8083809198008F5F809398008A
:1022200080818A3528F01082F80180818F5F808359
:1022300080919800873031F41092980065E0C601D3
:102240000E94D20FD5018D919C91892B09F0AEC0CF
:102250008881882341F088819091D700891709F4FB
:102260003FC020E03FC085E00E94B40F8093D900BA
:1022700085E00E94B40F8093D80083E00E94B40FE1
:102280008E5F8093D70082E00E94B40F813009F402
:1022900082E08093D6001FEF82E00E94B40F882373
:1022A00019F08093D50002C01093D5008091D6001C
:1022B000811105C09091D5008091D80006C0823070
:1022C00051F69091D5008091D9009F3F19F4882351
:1022D00019F3C1CF913009F0BECF8430E9F2BBCF02
:1022E0002091D5001091D600123031F49091D90090
:1022F000920F9093D90007C0111105C09091D8009A
:10230000920F9093D8006091D8009091D9008530B9
:10231000E9F5A601B9E19B9F400D511D112470E024
:10232000E091D500FF27E7FDF095892F90E08E1B07
:102330009F0BA9E1A89F9001A99F300D11242C0D9E
:102340003D1D5B01AE1ABF0A80E090E005E0089FEA
:10235000F001099FF00D1124DF01A60FB71F6A01DC
:10236000CA0EDB1EE6011882123021F4A20FB31F41
:102370001C9207C0111105C0EA0DFB1DE40FF51FEB
:10238000108201968530910511F710C0F601D9E150
:102390009D9FE00DF11D112425E0829FC0011124B5
:1023A000860F911DE80FF91F8AE08083DF91CF919E
:1023B0001F910F91FF90EF90DF90CF90BF90AF9063
:1023C0000895AF92BF92CF92DF92EF92FF920F9358
:1023D0001F93CF93DF93EC015B016A01FB018081C6
:1023E0009181059730F011821082FA0180818F5F10
:1023F0008083F6018081803110F1F70180818F5F49
:102400008083F601108283E00E94B40F823031F4A1
:1024100080919700882379F081500BC081110BC007
:1024200080919700823011F481E003C0823018F46B
:102430008F5F8093970060E0CE010E949C09F701B6
:102440008081843128F01082F80180818F5F808341
:10245000F50180819181892B09F003C1809197005A
:1024600090E09C012F5F3F4F65E0629FF001639F0A
:10247000F00D1124EC0FFD1F2AE024AB689FF00142
:10248000699FF00D1124EC0FFD1F24ABF601208194
:102490000296AE01455B5F4F20FF0CC0689F900124
:1024A000699F300D1124FE01E20FF31F82E084AB1F
:1024B00086E00BC0689F9001699F300D1124FE01DA
:1024C000E20FF31F86E084AB82E083AB85AB838FA2
:1024D000FA01E20FF31F828320E040E062E0CE01C8
:1024E0000E94FA0920E044E062E0CE010E94FA096D
:1024F00020E040E060E0CE010E94FA0920E044E0E4
:1025000060E0CE010E94FA09F60180819FEF980FEA
:10251000943080F48093D400B0E002E0A091D40025
:1025200080E090E029E1E22E35E0F32E1AE024E08D
:1025300030E01DC0983028F484508093D400B4E07B
:1025400011C09C3030F49CE0981B9093D400B4E010
:10255000E4CF803108F7882339F090E1981B9093FD
:10256000D400B0E000E0DACF1092D400FACF02300D
:1025700091F549E1B49FF0011124EC0FFD1F4A2FA2
:1025800050E0F89EB001F99E700D11246B01C40E4D
:10259000D51EEC0DFD1D10836901CB1AD108EC9CF2
:1025A000F001ED9CF00D1124EC0FFD1F6901C41A20
:1025B000D50AA601460F571FE40FF51F1083B1116E
:1025C00005C0AA2309F44BC0A15040C0A43008F0B4
:1025D00045C0AF5F3BC0011131C0FE0149E1A49F7E
:1025E000E00DF11D11244B2F50E0F89EB001F99E33
:1025F000700D11246B01C40ED51EEC0DFD1D108352
:102600006901CA1AD108EC9CF001ED9CF00D11246F
:10261000EC0FFD1F6901C41AD50AA601460F571F0A
:10262000E40FF51F1083B11104C0A33048F4AF5F6D
:1026300003C0A23040F0A15000E008C001E006C095
:10264000A0E0B4E002C0A4E0B0E002E00196853072
:10265000910509F08CCFA093D40003C0B4E0AB2F58
:10266000BCCFDF91CF911F910F91FF90EF90DF9042
:10267000CF90BF90AF900895982F621304C073134A
:1026800002C081E0941380E00895AF92BF92CF9290
:10269000DF92EF92FF920F931F93CF93DF93EC01A2
:1026A000F701DB018D919C9111970F9740F01196E6
:1026B0001C921E9280818F5F808391E001C090E028
:1026C0008081843628F01082F80180818F5F8083BA
:1026D000992309F4DEC16091AD00643058F420E024
:1026E0004091DE00CE010E94FA0984E08093AD00A3
:1026F0001092DE008091AB00FE0129E1829FE00D87
:10270000F11D11248091AA003091A90025E0289F95
:10271000C0011124830F911DE80FF91F10828091D1
:10272000A5009091A600A091A700B091A800809369
:10273000A9009093AA00A093AB00B093AC0032E044
:102740003093AC008091A1009091A200A091A300D1
:10275000B091A4008093A5009093A600A093A70039
:10276000B093A80080919D0090919E00A0919F0041
:10277000B091A0008093A1009093A200A093A30029
:10278000B093A4008091990090919A00A0919B0031
:10279000B0919C0080939D0090939E00A0939F0019
:1027A000B093A0002093A0008091AB00FE0199E1BE
:1027B000899FE00DF11D11248091AA004091A9008C
:1027C000289FC0011124840F911DE80FF91F308349
:1027D0008091A700FE01A9E18A9FE00DF11D11245F
:1027E0008091A6004091A5003091A800289FC001CB
:1027F0001124840F911DE80FF91F30838091A300ED
:10280000FE01B9E18B9FE00DF11D11248091A20022
:102810004091A1003091A400289FC0011124840F91
:10282000911DE80FF91F308380919F00FE0199E10F
:10283000899FE00DF11D112480919E0030919D0033
:10284000289FC0011124830F911DE80FF91F2083D9
:10285000C12CB12CD12CA0909C00F0909900E0905C
:102860009A0000919B008AE00E94B40F873058F0D4
:102870001091DD00C090DC00B090DB00D090DA0059
:10288000123001F519C083E00E94B40F182F823076
:1028900029F482E00E94B40FC82E0EC0813029F4C2
:1028A00082E00E94B40FB82E0FC081110BC082E0ED
:1028B0000E94B40FD82E10C0C11002C0015012C027
:1028C0000F5F10C0113031F4B11002C0EA940BC098
:1028D000E39409C0111107C0D11002C0FA9405C0D9
:1028E000F39409C012E0D11006C080919900D12C58
:1028F000882341F00AC0A1E0DA1207C08091990054
:10290000843019F4112309F4A6CFB11005C08091C9
:102910009A0081110BC007C0B1E0BB1207C08091C3
:102920009A00843019F4113009F495CFC11005C014
:1029300080919B0081110BC007C0E1E0CE1207C05F
:1029400080919B00843019F4123009F484CF2091D7
:102950009D0030919E0040919F005091A0006F2DEE
:102960007E2D802F9A2D0E943C13811174CF2091CF
:10297000A1003091A2004091A3005091A4006F2DBE
:102980007E2D802F9A2D0E943C13811164CF2091BF
:10299000A5003091A6004091A7005091A8006F2D8E
:1029A0007E2D802F9A2D0E943C13811154CF2091AF
:1029B000A9003091AA004091AB005091AC006F2D5E
:1029C0007E2D802F9A2D0E943C13811144CF80913F
:1029D0009900813029F4F1100DC01092AD0012C0A1
:1029E000833041F4F4E0FF1205C01092AD00F09284
:1029F000DE0027C080919A00813039F4E11010C0C8
:102A00008093AD001092DE001CC0833049F424E0B6
:102A1000E21206C081E08093AD00E092DE0011C0BA
:102A200080919B00813021F401110BC082E0E8CF3E
:102A3000833039F4043029F482E08093AD000093B0
:102A4000DE006091AD00643030F421E04091DE00A2
:102A5000CE010E94FA091093DD00C092DC00B09212
:102A6000DB00D092DA00F0929900E0929A00009395
:102A70009B00A0929C0089E1089FC00DD11D1124EC
:102A8000A5E0EA9EC00111248F0D911DC80FD91F2A
:102A9000A882DF91CF911F910F91FF90EF90DF906F
:102AA000CF90BF90AF900895991B79E004C0991F13
:102AB000961708F0961B881F7A95C9F78095089598
:102AC000AA1BBB1B51E107C0AA1FBB1FA617B70754
:102AD00010F0A61BB70B881F991F5A95A9F7809570
:102AE0009095BC01CD01089597FB072E16F4009434
:102AF00007D077FD09D00E94601507FC05D03EF491
:102B0000909581959F4F0895709561957F4F089599
:102B100070D088F09F5790F0B92F9927B751A0F047
:102B2000D1F0660F771F881F991F1AF0BA95C9F761
:102B300012C0B13081F077D0B1E0089574C0672F32
:102B4000782F8827B85F39F0B93FCCF38695779511
:102B50006795B395D9F73EF49095809570956195FA
:102B60007F4F8F4F9F4F0895E89409C097FB3EF425
:102B700090958095709561957F4F8F4F9F4F9923CA
:102B8000A9F0F92F96E9BB279395F6958795779548
:102B90006795B795F111F8CFFAF4BB0F11F460FF08
:102BA0001BC06F5F7F4F8F4F9F4F16C0882311F060
:102BB00096E911C0772321F09EE8872F762F05C074
:102BC000662371F096E8862F70E060E02AF09A950F
:102BD000660F771F881FDAF7880F9695879597F904
:102BE000089557FD9058440F551F59F05F3F71F0FD
:102BF0004795880F97FB991F61F09F3F79F0879564
:102C00000895121613061406551FF2CF4695F1DFEC
:102C100008C0161617061806991FF1CF869571057C
:102C2000610508940895E894BB2766277727CB01B0
:102C300097F90895DEDFE0F09E37D8F09639B8F4C2
:102C40009E3848F4672F782F8827985FF9CF8695AC
:102C50007795679593959539D0F3B62FB1706B0F33
:102C6000711D811D20F4879577956795939544C0D4
:102C70005EC0DACF11F40EF468C059C0BADFD0F3E9
:102C80009923D9F3CEF39F57550B87FF61D00024CA
:102C9000A0E640EA900180585695979528F4805C0C
:102CA000660F771F881F20F026173707480730F474
:102CB000621B730B840B202931294A2BA69517948C
:102CC0000794202531254A2758F7660F771F881F5C
:102CD00020F026173707480730F4620B730B840B7C
:102CE000200D311D411DA09581F7B901842F915808
:102CF000880F969587950895882371F4772321F09E
:102D00009850872B762F07C0662311F499270DC0A2
:102D10009051862B70E060E02AF09A95660F771F3D
:102D2000881FDAF7880F9695879597F908959F3F42
:102D300031F0915020F4879577956795B795880F76
:102D4000911D9695879597F908959FEF80EC0895CA
:102D500091505040660F771F881FD2F708958F92C9
:102D60009F92AF92BF92CF92DF92EF92FF92CF935A
:102D7000DF93EC01688179818A819B8161157105FE
:102D80008105910521F464E279ED8BE597E02DE171
:102D900033EF41E050E00E94221749015A019B01A4
:102DA000AC01A7EAB1E40E9441176B017C01ACEED3
:102DB000B4EFA50194010E944F17C60ED71EE81E5E
:102DC000F91EF7FE06C081E0C81AD108E10880E8C4
:102DD000F80AC882D982EA82FB82C6019F77DF9116
:102DE000CF91FF90EF90DF90CF90BF90AF909F90EA
:102DF0008F9008950E94AF16089580E690E00E949B
:102E0000AF160895A0E0B0E0809360009093610059
:102E1000A0936200B09363000895E199FECF9FBB39
:102E20008EBBE09A99278DB30895262FE199FECFA6
:102E30009FBB8EBB2DBB0FB6F894E29AE19A0FBEF2
:102E400001960895052E97FB1EF400940E943917F1
:102E500057FD07D00E94541707FC03D04EF40C9482
:102E6000391750954095309521953F4F4F4F5F4F03
:102E7000089590958095709561957F4F8F4F9F4FE6
:102E800008950E947617A59F900DB49F900DA49F62
:102E9000800D911D11240895B7FF0C9441170E94D5
:102EA0004117821B930B0895A1E21A2EAA1BBB1B8C
:102EB000FD010DC0AA1FBB1FEE1FFF1FA217B30706
:102EC000E407F50720F0A21BB30BE40BF50B661F1C
:102ED000771F881F991F1A9469F7609570958095E0
:102EE00090959B01AC01BD01CF010895A29FB00157
:102EF000B39FC001A39F700D811D1124911DB29F2E
:0E2F0000700D811D1124911D0895F894FFCFCE
:102F0E0001000000330239023F0245024B0251021A
:102F1E0057025D02630269026F0275027B02810233
:102F2E0087028D02930299029F02A502AB02B102A3
:102F3E00B702BD02C3020101070300000A0200002E
:102F4E000501000005000000050000010204030257
:102F5E00030064002B0EB60E9204440A08104513AB
:0A2F6E00350CEA10E1119607B609D0
:00000001FF
