:100000000C9440010C945D010C945D010C947A08F1
:100010000C94CA080C945D010C945D010C945D0174
:100020000C945D010C945D010C945D010C948507AA
:100030000C945D010C945D010C945D010C945D01C8
:100040000C945D010C945D010C945D010C945D01B8
:100050000C945D010C945D010C945D010C945D01A8
:100060000C945D010C945D01F606D906DF06E506E9
:10007000EB06F106FC06F6064572726F72206E6F93
:10008000207465787400005A61707261737A616DD2
:100090007920646F2073746F69736B617F00005700
:1000A0007973776965746C61637A205769646D6FE1
:1000B0007779203078310000576974616D79206E4E
:1000C0006120526F626F64617920323031370000F5
:1000D00005050505050505050305050405050505D3
:1000E00005050505050505050505050505050505C0
:1000F00005050505040404040504050403040403BC
:1001000005040404040504040405050504050501AB
:1001100003020501020105037E0909097E7F4949A1
:1001200049363E414141227F4141221C7F49494994
:10013000417F090909013E4149493A7F0808087F82
:1001400000417F41003040413F017F081422417F40
:10015000404040407F020C027F7F0408107F3E41F8
:1001600041413E7F090909063E416141BE7F0919AF
:100170002946264949493201017F01013F4040405B
:100180003F1F2040201F7F2010207F63140814632E
:10019000030478040361514945433E5149453E00FB
:1001A000427F40006251494946224149493618146C
:1001B000127F1027454545393C4A494930017109AC
:1001C00005033649494936064949291E20545478C1
:1001D000007F4444380038444444003844447F009D
:1001E0003854545458047E05010098A4A478007F24
:1001F0000404780000447D40004080847D007F102E
:1002000028440000417F40007C047C04787C040486
:1002100078003844443800FC24241800182424FCB6
:100220000004780404084854542400043F44400067
:100230003C40407C000C3040300C3C4030403C4462
:10024000281028441CA0A07C004464544C44002482
:10025000007E8100004000000080700000005F0010
:1002600000000201510906000000000000440000E7
:10027000000000440000220808413E000808080071
:1002800011241FBECFEFD8E0DEBFCDBF11E0A0E04C
:10029000B1E0E6E8FCE102C005900D92A832B1079A
:1002A000D9F722E0A8E2B1E001C01D92A23CB2075A
:1002B000E1F70E947E050C94410E0C9400001F9300
:1002C000CF93DF93182FEB0180E00E94DA0380EDDB
:1002D0000E9407048091280181111CC0812F0E9477
:1002E000F40380912801811115C081E00E94BE03B2
:1002F0008091280181110EC081ED0E940704809138
:100300002801811107C00E9425048883809128015B
:10031000882321F00E94E80380E003C00E94EC03E0
:1003200081E0DF91CF911F910895CF93DF93D82F74
:10033000C62F80E00E94DA0380ED0E9407048091BE
:10034000280181110EC08D2F0E94F4038091280195
:10035000811107C08C2F0E94F4038091280188230B
:1003600021F00E94E80380E003C00E94EC0381E0DA
:10037000DF91CF910895CF93DF931F92CDB7DEB772
:10038000BE016F5F7F4F80E00E945F01882379F09C
:1003900069816F77698380E00E949501882339F035
:1003A00061E187E00E94950191E0811101C090E038
:1003B000892F0F90DF91CF910895CF92DF92EF9226
:1003C000FF920F931F93CF93DF9300D01F92CDB76F
:1003D000DEB76C017B018A01BE016D5F7F4F82E059
:1003E0000E945F01811102C080E03FC0BE016E5FCC
:1003F0007F4F81E00E945F018823B1F3BE016F5FF0
:100400007F4F80E00E945F01882371F39A81892FDA
:1004100082958F709F702AE0829F900D11248981B0
:10042000282F22952F708F703AE0239F800D112482
:100430002B8126FF02C02F7101C02F732B832B81CC
:10044000322F32953F702F704AE0349F200D1124D7
:10045000283110F4F60120839C3310F4F7019083C7
:100460008C3310F4F801808381E00F900F900F908F
:10047000DF91CF911F910F91FF90EF90DF90CF9080
:100480000895EF92FF920F931F93CF93DF938C0108
:100490007B01EA0185E00E945F01811102C080E0DA
:1004A0002FC0B80184E00E945F018823C1F3BE0120
:1004B00086E00E945F01882391F3F7018081982FE5
:1004C00092959F708F70FAE09F9F800D1124F70125
:1004D0008083F8018081982F92959F708F70FAE049
:1004E0009F9F800D1124F80180838881982F929519
:1004F0009F708F70FAE09F9F800D1124888381E0A8
:10050000DF91CF911F910F91FF90EF9008951F936E
:10051000CF93DF93162FD42F883190F56C3380F56D
:100520004C3370F5CAE06C2F0E94190B40E1849F98
:1005300090011124692F622B82E00E94950188238B
:10054000F9F0812F6C2F0E94190B40E1849F9001DC
:100550001124692F622B81E00E949501882381F08C
:100560008D2F6C2F0E94190B692F20E1829FC001F3
:100570001124682B80E00E94950191E0811101C057
:1005800090E0892FDF91CF911F9108951F93CF9312
:10059000DF93182F862FD42F9FEF910F9F31A0F557
:1005A0009FEF960F9C3080F5443670F5CAE06C2FB3
:1005B0000E94190B40E1849F90011124692F622B46
:1005C00085E00E9495018823F9F0812F6C2F0E940D
:1005D000190B40E1849F90011124692F622B84E064
:1005E0000E949501882381F08D2F6C2F0E94190B9A
:1005F000692F20E1829FC0011124682B86E00E94B0
:10060000950191E0811101C090E0892FDF91CF9198
:100610001F910895EF92FF920F931F93CF93DF9353
:10062000CDB7DEB727970FB6F894DEBF0FBECDBFAC
:10063000AE014C5F5F4FBE016B5F7F4FCE010696F0
:100640000E94DD012FEF3DE389E4215030408040DE
:10065000E1F700C00000AE014F5F5F4FBE016E5F6B
:100660007F4FCE0103960E94DD012AE088E1F82E3B
:1006700008E110E09FE0E92E9C81898198133FC03A
:10068000215008F43CC00FB6F894F092600010922C
:1006900060000FBE0FB6F894A895009360000FBEDF
:1006A000E09260002F830E94BB0140E060E08CE09C
:1006B0000E94870241E165E086E00E94C602AE0129
:1006C0004C5F5F4FBE016B5F7F4FCE0106960E946D
:1006D000DD019FEF3DE389E4915030408040E1F738
:1006E00000C00000AE014F5F5F4FBE016E5F7F4FE5
:1006F000CE0103960E94DD01A8952F81BDCF88E130
:100700000FB6F89480936000109260000FBE211124
:1007100014C028E088E190E00FB6F894A895809383
:1007200060000FBE209360009FE32DE033E0915006
:1007300020403040E1F700C0000027960FB6F89443
:10074000DEBF0FBECDBFDF91CF911F910F91FF9004
:10075000EF9008958091BC0087FFFCCF0895109220
:10076000280184E48093BC00E9EBF0E080818C7F79
:100770008160808388EF8093B8000895CF938823A9
:1007800011F0C0E101C0C8E084EA8093BC000E947F
:10079000AA032091B900287F30E08C2F90E0281721
:1007A000390721F081E08093280102C010922801CE
:1007B000CF910895CF93DF931F92CDB7DEB7898392
:1007C0000E94AF0389810F90DF91CF910C94BE03FB
:1007D00084E98093BC00089584E98093BC008091F3
:1007E000BC0084FFFCCF08958093BB0084E8809315
:1007F000BC000E94AA038091B900887F883221F052
:1008000084E0809328010895109228010895CF93E1
:1008100080FF02C0C0E401C0C8E18093BB0084E84F
:100820008093BC000E94AA032091B900287F30E089
:100830008C2F90E02817390721F083E0809328015E
:1008400002C010922801CF910895CF93DF931F9299
:10085000CDB7DEB790E4899F9001112424682093DE
:10086000BC0089830E94AA038981882339F0809182
:10087000B900887F803561F084E006C08091B900BE
:10088000887F883529F083E08093280180E004C0C8
:10089000109228018091BB000F90DF91CF910895B5
:1008A000CF93C82F80E0CF3F71F00E94DA038C2FE6
:1008B0000E9407048091280110922801882311F0DA
:1008C000CF5FF0CF8C2FCF910895CF92DF92FF9220
:1008D0000F931F93CF93DF931F92CDB7DEB7D82E20
:1008E000042F122FF32E80E069830E94DA038D2DEE
:1008F0000E940704809128016981811115C0862F0B
:100900000E94F4038091280181110EC0C12EDF2CBA
:10091000100F1C1579F0F60181916F010E94F4030C
:10092000809128018823A9F384E98093BC008091F9
:10093000280103C00E94EC0380E00F90DF91CF916B
:100940001F910F91FF90DF90CF900895CF92DF928B
:10095000FF920F931F93CF93DF931F92CDB7DEB714
:10096000D82E142FF22E032F80E069830E94DA0321
:100970008D2D0E940704809128016981811129C071
:10098000862F0E94F40380912801811122C081E00A
:100990000E94BE038091280181111BC081E08D0D52
:1009A0000E94070480912801811113C01150CF2C9F
:1009B000D02E1F3FA1F081E0111101C080E00E9404
:1009C0002504F60181936F0111508091280188233D
:1009D00081F384E98093BC008091280103C00E94C8
:1009E000EC0380E00F90DF91CF911F910F91FF906A
:1009F000DF90CF9008959B01D901F9017491422FA6
:100A0000461B50E0772349F02F5F3F4FFD01A49133
:100A1000FC01E40FF51FA083EFCFFC01E40FF51FED
:100A2000108208959FE9980F9A3110F48D5308951C
:100A30009FEB980F9A31F0F090ED980F9A3010F4E8
:100A4000865108958032C1F08E32C1F08C32C1F0EF
:100A50008132C1F08F33C1F08A33C1F08332C1F0EB
:100A60008F3721F08D3221F487E4089586E40895CC
:100A70008EE30895892F089583E408958FE3089500
:100A800080E4089581E4089582E4089584E408955B
:100A900085E40895CF93DF931F92CDB7DEB765301D
:100AA00070F469830E94120595E0899FF00111247A
:100AB0006981E60FF11DE85EFE4F849101C080E080
:100AC0000F90DF91CF9108950E941205E82FF0E07A
:100AD000E053FF4F84910895613049F028F062306F
:100AE00049F467E870E008C068EB70E005C06FE9A2
:100AF00070E002C068E770E00C94FB048AB18FEFED
:100B00008AB91BB8289A299A2A9A439A8091810017
:100B100089608093810080916F00826080936F0074
:100B200088E592E090938900809388008091680026
:100B300083608093680080916B00876080936B0076
:100B400080916C00886080936C000E94BB010E94C1
:100B50000A0348EB52E067EB72E086EB92E00E94FA
:100B6000DD0148EA52E067EA72E086EA92E00E941C
:100B700041028091B6022AE0622F0E94190B8093F5
:100B8000B9029093BA028091B7020E94190B809328
:100B9000BB029093BC028091B8020E94190B809313
:100BA000BD029093BE028091A6020E94190B809311
:100BB000A9029093AA028091A7020E94190B809328
:100BC000AB029093AC028091A8020E94190B809313
:100BD000AD029093AE02789443EA442E42E0542E44
:100BE00050E0652E51E0752EC3E9D2E064EBE62EAD
:100BF00062E0F62E7BE2C72E71E0D72EE0EDAE2E3E
:100C0000E7E0BE2EF0E18F2EF7E29F2E39E0332E83
:100C10008091A502882309F4A9C01092A5028091B1
:100C2000AF02882311F0A895A1C080912A018F5F9F
:100C300080932A0187FF44C010922A0148EB52E0BA
:100C400067EB72E086EB92E00E94DD0148EA52E039
:100C500067EA72E086EA92E00E9441028091B60261
:100C60002AE0622F0E94190B8093B9029093BA0276
:100C70008091B7020E94190B8093BB029093BC0233
:100C80008091B8020E94190B8093BD029093BE021E
:100C90008091A6020E94190B8093A9029093AA0248
:100CA0008091A7020E94190B8093AB029093AC0233
:100CB0008091A8020E94190B8093AD029093AE021E
:100CC0008091A302882339F01092A30280919F02A1
:100CD0008F5F80939F0280919F02823010F010926C
:100CE0009F0280919F0290E0880F991F8D5F9E4F19
:100CF0005F924F927F926F92DF93CF93FF92EF922A
:100D0000DF92CF92ADB7BEB719970FB6F894BEBFBA
:100D10000FBEADBF1196E6EAF2E0232D01900D92D1
:100D20002A95E1F7DC01ED91FC910091B60210915A
:100D3000B7022091B8023091B9024091BA025091A5
:100D4000BB026091BC027091BD028091BE02099508
:100D50002DB73EB72D5E3F4F0FB6F8943EBF0FBE86
:100D60002DBF8091A3028111ABCF5DCF19990AC02D
:100D70008091B2029091B302892B21F4B092B30218
:100D8000A092B2028091B2029091B3020197A1F5B4
:100D9000199B32C01092B3021092B2028091AF023E
:100DA00090E08830910540F5FC01EC5CFF4F0C941D
:100DB0005B0B82E08093AF028091B7021CC083E09E
:100DC0008093AF028091A60216C084E08093AF02A8
:100DD0008091A70210C085E08093AF028091A802A5
:100DE0000AC086E08093AF028FEF05C081E0809358
:100DF000AF028091B6028BB91A9918C080919902FE
:100E000090919A02892B91F48091BF028A3050F41C
:100E100090929A02809299028091BF028F5F809394
:100E2000BF0204C0B0929A02A092990280919902E6
:100E300090919A02019709F050C010929A02109274
:100E400099028091AF02833029F128F4813041F07A
:100E5000823099F042C0843041F1853089F13DC043
:100E60008091B6028F5F883118F48093B60202C079
:100E70001092B6028091B6022FC08091B7028F5FA8
:100E80008C3318F48093B70202C01092B70280919D
:100E9000B70222C08091A6028F5F803208F081E005
:100EA0008093A6028091A60217C08091A7028F5F4F
:100EB0008D3008F081E08093A7028091A7020CC0DA
:100EC0008091A8028F5F843618F48093A80202C034
:100ED0001092A8028091A8028BB98091AF0286304F
:100EE00009F096CE40E06091B7028091B6020E9470
:100EF00087024091A8026091A7028091A6020E94F9
:100F0000C60287E08093AF0281CE1F920F920FB688
:100F10000F9211242F933F934F935F936F937F937F
:100F20008F939F93AF93BF93EF93FF938091B00202
:100F30009091B10201969093B1028093B00280919A
:100F400029018F5F809329018232F0F010922901EC
:100F50008091930290919402A0919502B091960293
:100F60000196A11DB11D8093930290939402A093CA
:100F70009502B09396028091A0029091A1020196F1
:100F80009093A1028093A0028091B4029091B50247
:100F9000892BF9F02091A0023091A1028091B40236
:100FA0009091B50228173907A0F01092A102109273
:100FB000A00280910001909101010196909301019E
:100FC000809300018836914021F410920101109223
:100FD0000001809197029091980201969093980257
:100FE0008093970220919D0230919E028217930771
:100FF000E0F18091AF02811138C080919B02909105
:101000009C0288369140D0F420919B0230919C0242
:10101000C901019690939C0280939B0280910001EC
:1010200090910101820F931F68E671E00E94250BE9
:10103000855D9E4FFC0180818BB901C01BB8A091DA
:10104000C002B091C10220919B0230919C022F5F9F
:101050003F4F0E94610B28E631E040E050E00E94E3
:10106000390B30939E0220939D028091B0029091A3
:10107000B1028131974250F08091AF02811106C0D8
:1010800081E08093AF028091B6028BB98091B20269
:101090009091B302029758F0199B09C08091B20257
:1010A0009091B30201979093B3028093B202809122
:1010B000990290919A02029750F080919902909132
:1010C0009A02019790939A028093990202C010921B
:1010D000BF02FF91EF91BF91AF919F918F917F914F
:1010E0006F915F914F913F912F910F900FBE0F9095
:1010F0001F9018951F920F920FB60F9211245F93B5
:101100006F937F938F939F93AF93BF93189936C03C
:101110008091B0029091B1029093C1028093C0027D
:101120008091C0029091C10268E671E00E94250B97
:1011300070939E0260939D0210929C0210929B02FB
:1011400010929C0210929B021092980210929702A9
:101150001092B1021092B002109285001092840099
:101160008091AF02873041F08091AF02813021F051
:101170008091AF02823011F41092AF02BF91AF9113
:101180009F918F917F916F915F910F900FBE0F9004
:101190001F9018951F920F920FB60F9211248F93E4
:1011A00033990CC08091A2028F5F8093A20280329B
:1011B00028F01092A20281E08093A5028F910F90F7
:1011C0000FBE0F901F90189521E8683631E0730725
:1011D00038F4FC01E60FF71F20836F5F7F4FF5CFD8
:1011E00008956F927F929F92AF92BF92CF92DF92BB
:1011F000EF92FF920F931F93CF93DF9300D0CDB761
:10120000DEB75C018B01FB0110821182912C82E020
:10121000682E712C6501C90CD11CF60180818823D0
:1012200009F466C0F8E66F16F1E07F0608F065C0C5
:10123000F801E60DF71D108293012F5F3F4F28360E
:1012400041E0340719F487E691E07FC0F801E20F2E
:10125000F31F1082C30102968836E1E09E0709F46D
:101260006CC0F801E80FF91F1082F3E06F0E711CDB
:10127000F60180810E946405843028F4813009F0F1
:101280005EC022E060C020E0853011F034E001C093
:1012900035E07801E60CF71CF8E66F16F1E07F0602
:1012A00060F5622FF601808129833A830E944A0506
:1012B000F7018083C301019629813A81F7E66F1611
:1012C000F1E07F0609F4BFCFF7011182F6E66F1651
:1012D000F1E07F06D1F1F70112822F5FF3E06F0E8C
:1012E000711C43E0E40EF11C2317B0F2939492CFEB
:1012F000F8E66F16F1E07F0618F0C301019725C0EC
:10130000F801E60DF71D1082C3010196883621E031
:10131000920709F498CFF801E80FF91F108242E014
:10132000640E711CE8E66E16E1E07E0671F0F801CD
:10133000E60DF71D1082C30108C0C90106C021E0F7
:10134000833008F0A3CF33E0A4CF0F900F90DF914C
:10135000CF911F910F91FF90EF90DF90CF90BF90B2
:10136000AF909F907F906F900895EF92FF920F93B0
:101370001F93CF93DF93CDB7DEB76D970FB6F89479
:10138000DEBF0FBECDBF0D8B1E8B2F8B388F498FCD
:101390005A8F6B8F7C8F8D8F0FA518A9EBA9FCA995
:1013A00080819181A281B38188349845A105B105DE
:1013B00048F0108211821282138281E0EFA9F8AD09
:1013C000808372C0608171818281938128E438E5D5
:1013D00040E050E00E94390B60367445810591056C
:1013E00060F41092A4029E898F892D89211115C065
:1013F000911113C0811111C057C060E070E0C801A5
:101400000E94E408E9A9FAA91182108280EF90E015
:10141000EDA9FEA99183808347C08EA51F928F936B
:101420008DA51F928F938CA51F928F938BA51F92D2
:101430008F938AA51F928F9389A51F928F938D8D6D
:101440001F928F938C8D1F928F938B8D1F928F93F2
:101450008A8D1F928F93898D1F928F93888D1F92F3
:101460008F9387E091E09F938F93CE0101967C014B
:10147000FF928F930E94700BB801C7010E94F10880
:10148000BC016F5F7F4F0FB6F894DEBF0FBECDBFBC
:101490006836F1E07F0718F4C8010E94E4088EE185
:1014A00090E0E9A9FAA9B6CF6D960FB6F894DEBF21
:1014B0000FBECDBFDF91CF911F910F91FF90EF90A5
:1014C00008954F925F926F927F92AF92BF92CF92A8
:1014D000DF92EF92FF920F931F93CF93DF93CDB7DD
:1014E000DEB7A7970FB6F894DEBF0FBECDBF0F8F44
:1014F00018A329A33AA34BA35CA36DA37EA38FA338
:101500002396AEACBFAC239727960EAD1FAD2797A1
:10151000F80180819181A281B3818837944BA10524
:10152000B10578F0F80110821182128213828FEFD8
:101530008093020181E02B96EEADFFAD2B97808367
:1015400063C081E08093A402F8016081718182818F
:10155000938128E2C22E2CE3D22EE12CF12CA7019C
:1015600096010E94390B6034784381059105C8F5D6
:10157000F801608171818281938140900201512C38
:10158000612C712CA70196010E94390B421653065B
:1015900064067506C9F1F8016081718182819381C9
:1015A000A70196010E94390B20930201622FCE0100
:1015B00001960E946C05B501CE0101960E94F108CA
:1015C000BC016F5F7F4F6836F1E07F0718F4C501FB
:1015D0000E94E40884E190E02596EEADFFAD2597EA
:1015E00011C060E070E0C5010E94E4082596EEADF0
:1015F000FFAD25971182108280EF90E02996EEAD25
:10160000FFAD299791838083A7960FB6F894DEBF2C
:101610000FBECDBFDF91CF911F910F91FF90EF9043
:10162000DF90CF90BF90AF907F906F905F904F9082
:101630000895991B79E004C0991F961708F0961B2E
:10164000881F7A95C9F780950895AA1BBB1B51E1A5
:1016500007C0AA1FBB1FA617B70710F0A61BB70B22
:10166000881F991F5A95A9F780959095BC01CD01C7
:101670000895A1E21A2EAA1BBB1BFD010DC0AA1FD3
:10168000BB1FEE1FFF1FA217B307E407F50720F0EB
:10169000A21BB30BE40BF50B661F771F881F991F66
:1016A0001A9469F760957095809590959B01AC01AF
:1016B000BD01CF010895EE0FFF1F0590F491E02DBD
:1016C0000994A29FB001B39FC001A39F700D811D1B
:1016D0001124911DB29F700D811D1124911D08953B
:1016E000AEE0B0E0E6E7FBE00C94180E0D891E8931
:1016F00086E08C831A8309838FEF9FE79E838D8317
:10170000AE01475E5F4F6F89788DCE0101960E94D2
:10171000920BEF81F885E00FF11F10822E96E4E026
:101720000C94340EACE0B0E0E8E9FBE00C940A0E57
:101730007C016B018A01FC0117821682838181FF83
:10174000BDC1CE0101964C01F7019381F60193FDD5
:10175000859193FF81916F01882309F4ABC1853294
:1017600039F493FD859193FF81916F01853229F4BE
:10177000B70190E00E947A0DE7CF512C312C20E088
:101780002032A0F48B3269F030F4803259F0833289
:1017900069F420612CC08D3239F0803339F4216036
:1017A00026C02260246023C0286021C027FD27C0F6
:1017B00030ED380F3A3078F426FF06C0FAE05F9E2D
:1017C000300D1124532E13C08AE0389E300D1124A1
:1017D000332E20620CC08E3221F426FD6BC12064B2
:1017E00006C08C3611F4206802C0883641F4F60138
:1017F00093FD859193FF81916F018111C1CF982F46
:101800009F7D9554933028F40C5F1F4FFFE3F983BD
:101810000DC0833631F0833771F0833509F05BC03A
:1018200022C0F801808189830E5F1F4F44244394B6
:10183000512C540115C03801F2E06F0E711CF801F3
:10184000A080B18026FF03C0652D70E002C06FEF5D
:101850007FEFC5012C870E946F0D2C0183012C8521
:101860002F77222E17C03801F2E06F0E711CF8019D
:10187000A080B18026FF03C0652D70E002C06FEF2D
:101880007FEFC5012C870E94640D2C012C852068F8
:10189000222E830123FC1BC0832D90E0481659069D
:1018A000B0F4B70180E290E00E947A0D3A94F4CF50
:1018B000F50127FC859127FE81915F01B70190E03A
:1018C0000E947A0D31103A94F1E04F1A51084114F8
:1018D000510471F7E5C0843611F0893639F5F80105
:1018E00027FF07C060817181828193810C5F1F4F48
:1018F00008C060817181882777FD8095982F0E5FE1
:101900001F4F2F76B22E97FF09C090958095709546
:1019100061957F4F8F4F9F4F2068B22E2AE030E0B5
:10192000A4010E94AC0DA82EA81844C0853729F444
:101930002F7EB22E2AE030E025C0F22FF97FBF2E95
:101940008F36C1F018F4883579F0B4C0803719F0BB
:10195000883721F0AFC02F2F2061B22EB4FE0DC00A
:101960008B2D8460B82E09C024FF0AC09F2F96607B
:10197000B92E06C028E030E005C020E130E002C00A
:1019800020E132E0F801B7FE07C0608171818281F9
:1019900093810C5F1F4F06C06081718180E090E0F1
:1019A0000E5F1F4FA4010E94AC0DA82EA818FB2D9E
:1019B000FF77BF2EB6FE0BC02B2D2E7FA51450F443
:1019C000B4FE0AC0B2FC08C02B2D2E7E05C07A2CB6
:1019D0002B2D03C07A2C01C0752C24FF0DC0FE01F5
:1019E000EA0DF11D8081803311F4297E09C022FFA8
:1019F00006C07394739404C0822F867809F07394A0
:101A000023FD13C020FF06C05A2C731418F4530C86
:101A10005718732C731468F4B70180E290E02C8798
:101A20000E947A0D73942C85F5CF731410F4371837
:101A300001C0312C24FF12C0B70180E390E02C8755
:101A40000E947A0D2C8522FF17C021FF03C088E574
:101A500090E002C088E790E0B7010CC0822F867842
:101A600059F021FD02C080E201C08BE227FD8DE22A
:101A7000B70190E00E947A0DA51438F4B70180E315
:101A800090E00E947A0D5A94F7CFAA94F401EA0DDF
:101A9000F11D8081B70190E00E947A0DA110F5CF71
:101AA000332009F451CEB70180E290E00E947A0D14
:101AB0003A94F6CFF7018681978102C08FEF9FEFAE
:101AC0002C96E2E10C94260EFC01059061507040CA
:101AD0000110D8F7809590958E0F9F1F0895FC01F7
:101AE0006150704001900110D8F7809590958E0F4D
:101AF0009F1F08950F931F93CF93DF93182F092FE4
:101B0000EB018B8181FD03C08FEF9FEF20C082FF2F
:101B100010C04E815F812C813D81421753077CF4B8
:101B2000E881F9819F012F5F3F4F3983288310831C
:101B300006C0E885F985812F0995892B29F72E8123
:101B40003F812F5F3F4F3F832E83812F902FDF9167
:101B5000CF911F910F910895FA01AA27283051F1D2
:101B6000203181F1E8946F936E7F6E5F7F4F8F4FCE
:101B70009F4FAF4FB1E03ED0B4E03CD0670F781F2D
:101B8000891F9A1FA11D680F791F8A1F911DA11D12
:101B90006A0F711D811D911DA11D20D009F468944B
:101BA0003F912AE0269F11243019305D3193DEF6F3
:101BB000CF010895462F4770405D4193B3E00FD0A9
:101BC000C9F7F6CF462F4F70405D4A3318F0495D94
:101BD00031FD4052419302D0A9F7EACFB4E0A69577
:101BE0009795879577956795BA95C9F70097610599
:101BF000710508959B01AC010A2E069457954795EF
:101C000037952795BA95C9F7620F731F841F951FE3
:101C1000A01D08952F923F924F925F926F927F92F4
:101C20008F929F92AF92BF92CF92DF92EF92FF92EC
:101C30000F931F93CF93DF93CDB7DEB7CA1BDB0B98
:101C40000FB6F894DEBF0FBECDBF09942A8839883D
:101C500048885F846E847D848C849B84AA84B98444
:101C6000C884DF80EE80FD800C811B81AA81B98150
:101C7000CE0FD11D0FB6F894DEBF0FBECDBFED0164
:061C80000895F894FFCF67
:101C8600F000FFB509610A256425642325642564EF
:101C960023256425642020256425642D2564256478
:081CA6002D3230256425640095
:00000001FF
